{
  "contractName": "contractCreator",
  "abi": [
    {
      "inputs": [
        {
          "internalType": "uint256",
          "name": "quorum_",
          "type": "uint256"
        },
        {
          "internalType": "string",
          "name": "question_",
          "type": "string"
        }
      ],
      "payable": false,
      "stateMutability": "nonpayable",
      "type": "constructor"
    },
    {
      "constant": true,
      "inputs": [],
      "name": "approvals",
      "outputs": [
        {
          "internalType": "uint256",
          "name": "",
          "type": "uint256"
        }
      ],
      "payable": false,
      "stateMutability": "view",
      "type": "function"
    },
    {
      "constant": true,
      "inputs": [],
      "name": "completed",
      "outputs": [
        {
          "internalType": "bool",
          "name": "",
          "type": "bool"
        }
      ],
      "payable": false,
      "stateMutability": "view",
      "type": "function"
    },
    {
      "constant": true,
      "inputs": [],
      "name": "live",
      "outputs": [
        {
          "internalType": "bool",
          "name": "",
          "type": "bool"
        }
      ],
      "payable": false,
      "stateMutability": "view",
      "type": "function"
    },
    {
      "constant": true,
      "inputs": [],
      "name": "owner",
      "outputs": [
        {
          "internalType": "address",
          "name": "",
          "type": "address"
        }
      ],
      "payable": false,
      "stateMutability": "view",
      "type": "function"
    },
    {
      "constant": true,
      "inputs": [],
      "name": "question",
      "outputs": [
        {
          "internalType": "string",
          "name": "",
          "type": "string"
        }
      ],
      "payable": false,
      "stateMutability": "view",
      "type": "function"
    },
    {
      "constant": true,
      "inputs": [],
      "name": "quorum",
      "outputs": [
        {
          "internalType": "uint256",
          "name": "",
          "type": "uint256"
        }
      ],
      "payable": false,
      "stateMutability": "view",
      "type": "function"
    },
    {
      "constant": true,
      "inputs": [],
      "name": "responseInfo",
      "outputs": [
        {
          "internalType": "string",
          "name": "",
          "type": "string"
        }
      ],
      "payable": false,
      "stateMutability": "view",
      "type": "function"
    },
    {
      "constant": true,
      "inputs": [],
      "name": "token",
      "outputs": [
        {
          "internalType": "address",
          "name": "",
          "type": "address"
        }
      ],
      "payable": false,
      "stateMutability": "view",
      "type": "function"
    },
    {
      "constant": true,
      "inputs": [
        {
          "internalType": "uint256",
          "name": "",
          "type": "uint256"
        }
      ],
      "name": "voters",
      "outputs": [
        {
          "internalType": "address",
          "name": "",
          "type": "address"
        }
      ],
      "payable": false,
      "stateMutability": "view",
      "type": "function"
    },
    {
      "constant": true,
      "inputs": [],
      "name": "votersLength",
      "outputs": [
        {
          "internalType": "uint256",
          "name": "",
          "type": "uint256"
        }
      ],
      "payable": false,
      "stateMutability": "view",
      "type": "function"
    },
    {
      "constant": true,
      "inputs": [],
      "name": "withdraw",
      "outputs": [
        {
          "internalType": "bool",
          "name": "",
          "type": "bool"
        }
      ],
      "payable": false,
      "stateMutability": "view",
      "type": "function"
    },
    {
      "constant": false,
      "inputs": [
        {
          "internalType": "address",
          "name": "address_",
          "type": "address"
        }
      ],
      "name": "addVoter",
      "outputs": [
        {
          "internalType": "bool",
          "name": "",
          "type": "bool"
        }
      ],
      "payable": false,
      "stateMutability": "nonpayable",
      "type": "function"
    },
    {
      "constant": false,
      "inputs": [],
      "name": "goLive",
      "outputs": [
        {
          "internalType": "bool",
          "name": "",
          "type": "bool"
        }
      ],
      "payable": false,
      "stateMutability": "nonpayable",
      "type": "function"
    },
    {
      "constant": false,
      "inputs": [],
      "name": "vote",
      "outputs": [
        {
          "internalType": "bool",
          "name": "",
          "type": "bool"
        }
      ],
      "payable": false,
      "stateMutability": "nonpayable",
      "type": "function"
    },
    {
      "constant": false,
      "inputs": [
        {
          "internalType": "string",
          "name": "info",
          "type": "string"
        }
      ],
      "name": "submitInfo",
      "outputs": [
        {
          "internalType": "bool",
          "name": "",
          "type": "bool"
        }
      ],
      "payable": false,
      "stateMutability": "nonpayable",
      "type": "function"
    }
  ],
  "bytecode": "0x60806040526000600560006101000a81548160ff0219169083151502179055506000600560016101000a81548160ff0219169083151502179055506000600560026101000a81548160ff02191690831515021790555060006007556000600a553480156200006c57600080fd5b506040516200118638038062001186833981810160405260408110156200009257600080fd5b810190808051906020019092919080516040519392919084640100000000821115620000bd57600080fd5b83820191506020820185811115620000d457600080fd5b8251866001820283011164010000000082111715620000f257600080fd5b8083526020830192505050908051906020019080838360005b83811015620001285780820151818401526020810190506200010b565b50505050905090810190601f168015620001565780820380516001836020036101000a031916815260200191505b5060405250505033600160006101000a81548173ffffffffffffffffffffffffffffffffffffffff021916908373ffffffffffffffffffffffffffffffffffffffff160217905550816002819055508060039080519060200190620001bd929190620001c6565b50505062000275565b828054600181600116156101000203166002900490600052602060002090601f016020900481019282601f106200020957805160ff19168380011785556200023a565b828001600101855582156200023a579182015b82811115620002395782518255916020019190600101906200021c565b5b5090506200024991906200024d565b5090565b6200027291905b808211156200026e57600081600090555060010162000254565b5090565b90565b610f0180620002856000396000f3fe608060405234801561001057600080fd5b50600436106100f55760003560e01c80638da5cb5b11610097578063bacdec1d11610066578063bacdec1d1461034e578063da58c7d914610421578063f4ab9adf1461048f578063fc0c546a146104eb576100f5565b80638da5cb5b146102a2578063957aa58c146102ec5780639d9a7fe91461030e578063b05dba9614610330576100f5565b80633fad9ae0116100d35780633fad9ae01461015c57806354c67784146101df578063632a9a52146102625780636c6c39fb14610284576100f5565b80631703a018146100fa5780632c28f579146101185780633ccfd60b1461013a575b600080fd5b610102610535565b6040518082815260200191505060405180910390f35b61012061053b565b604051808215151515815260200191505060405180910390f35b610142610622565b604051808215151515815260200191505060405180910390f35b610164610635565b6040518080602001828103825283818151815260200191508051906020019080838360005b838110156101a4578082015181840152602081019050610189565b50505050905090810190601f1680156101d15780820380516001836020036101000a031916815260200191505b509250505060405180910390f35b6101e76106d3565b6040518080602001828103825283818151815260200191508051906020019080838360005b8381101561022757808201518184015260208101905061020c565b50505050905090810190601f1680156102545780820380516001836020036101000a031916815260200191505b509250505060405180910390f35b61026a610771565b604051808215151515815260200191505060405180910390f35b61028c6109dd565b6040518082815260200191505060405180910390f35b6102aa6109e3565b604051808273ffffffffffffffffffffffffffffffffffffffff1673ffffffffffffffffffffffffffffffffffffffff16815260200191505060405180910390f35b6102f4610a09565b604051808215151515815260200191505060405180910390f35b610316610a1c565b604051808215151515815260200191505060405180910390f35b610338610a2f565b6040518082815260200191505060405180910390f35b6104076004803603602081101561036457600080fd5b810190808035906020019064010000000081111561038157600080fd5b82018360208201111561039357600080fd5b803590602001918460018302840111640100000000831117156103b557600080fd5b91908080601f016020809104026020016040519081016040528093929190818152602001838380828437600081840152601f19601f820116905080830192505050505050509192919290505050610a35565b604051808215151515815260200191505060405180910390f35b61044d6004803603602081101561043757600080fd5b8101908080359060200190929190505050610ae0565b604051808273ffffffffffffffffffffffffffffffffffffffff1673ffffffffffffffffffffffffffffffffffffffff16815260200191505060405180910390f35b6104d1600480360360208110156104a557600080fd5b81019080803573ffffffffffffffffffffffffffffffffffffffff169060200190929190505050610b1c565b604051808215151515815260200191505060405180910390f35b6104f3610e02565b604051808273ffffffffffffffffffffffffffffffffffffffff1673ffffffffffffffffffffffffffffffffffffffff16815260200191505060405180910390f35b60025481565b6000600160009054906101000a900473ffffffffffffffffffffffffffffffffffffffff1673ffffffffffffffffffffffffffffffffffffffff163373ffffffffffffffffffffffffffffffffffffffff1614610600576040517f08c379a000000000000000000000000000000000000000000000000000000000815260040180806020018281038252600b8152602001807f6f6e6c79206f776e65722100000000000000000000000000000000000000000081525060200191505060405180910390fd5b6001600560006101000a81548160ff0219169083151502179055506001905090565b600560029054906101000a900460ff1681565b60038054600181600116156101000203166002900480601f0160208091040260200160405190810160405280929190818152602001828054600181600116156101000203166002900480156106cb5780601f106106a0576101008083540402835291602001916106cb565b820191906000526020600020905b8154815290600101906020018083116106ae57829003601f168201915b505050505081565b60048054600181600116156101000203166002900480601f0160208091040260200160405190810160405280929190818152602001828054600181600116156101000203166002900480156107695780601f1061073e57610100808354040283529160200191610769565b820191906000526020600020905b81548152906001019060200180831161074c57829003601f168201915b505050505081565b600060011515600560009054906101000a900460ff161515146107fc576040517f08c379a00000000000000000000000000000000000000000000000000000000081526004018080602001828103825260158152602001807f636f6e7472616374206973206e6f74206c69766521000000000000000000000081525060200191505060405180910390fd5b60011515600860003373ffffffffffffffffffffffffffffffffffffffff1673ffffffffffffffffffffffffffffffffffffffff16815260200190815260200160002060009054906101000a900460ff161515146108c2576040517f08c379a00000000000000000000000000000000000000000000000000000000081526004018080602001828103825260158152602001807f766f746572206e6f7420617574686f72697a656421000000000000000000000081525060200191505060405180910390fd5b600960003373ffffffffffffffffffffffffffffffffffffffff1673ffffffffffffffffffffffffffffffffffffffff16815260200190815260200160002060009054906101000a900460ff1615610982576040517f08c379a00000000000000000000000000000000000000000000000000000000081526004018080602001828103825260148152602001807f766f74657220616c726561647920766f7465642100000000000000000000000081525060200191505060405180910390fd5b600a60008154809291906001019190505550600254600a54106109d6576001600560026101000a81548160ff0219169083151502179055506001600560016101000a81548160ff0219169083151502179055505b6001905090565b60075481565b600160009054906101000a900473ffffffffffffffffffffffffffffffffffffffff1681565b600560009054906101000a900460ff1681565b600560019054906101000a900460ff1681565b600a5481565b600060011515600560009054906101000a900460ff16151514610ac0576040517f08c379a00000000000000000000000000000000000000000000000000000000081526004018080602001828103825260158152602001807f636f6e7472616374206973206e6f74206c69766521000000000000000000000081525060200191505060405180910390fd5b8160049080519060200190610ad6929190610e27565b5060019050919050565b60068181548110610aed57fe5b906000526020600020016000915054906101000a900473ffffffffffffffffffffffffffffffffffffffff1681565b6000801515600560009054906101000a900460ff16151514610ba6576040517f08c379a00000000000000000000000000000000000000000000000000000000081526004018080602001828103825260118152602001807f636f6e7472616374206973206c6976652100000000000000000000000000000081525060200191505060405180910390fd5b600160009054906101000a900473ffffffffffffffffffffffffffffffffffffffff1673ffffffffffffffffffffffffffffffffffffffff163373ffffffffffffffffffffffffffffffffffffffff1614610c69576040517f08c379a000000000000000000000000000000000000000000000000000000000815260040180806020018281038252600b8152602001807f6f6e6c79206f776e65722100000000000000000000000000000000000000000081525060200191505060405180910390fd5b600860008373ffffffffffffffffffffffffffffffffffffffff1673ffffffffffffffffffffffffffffffffffffffff16815260200190815260200160002060009054906101000a900460ff1615610d29576040517f08c379a000000000000000000000000000000000000000000000000000000000815260040180806020018281038252601d8152602001807f6164647265737320616c72656164792061626c6520746f20766f74652100000081525060200191505060405180910390fd5b60068290806001815401808255809150509060018203906000526020600020016000909192909190916101000a81548173ffffffffffffffffffffffffffffffffffffffff021916908373ffffffffffffffffffffffffffffffffffffffff160217905550506001600860008473ffffffffffffffffffffffffffffffffffffffff1673ffffffffffffffffffffffffffffffffffffffff16815260200190815260200160002060006101000a81548160ff02191690831515021790555060076000815480929190600101919050555060019050919050565b6000809054906101000a900473ffffffffffffffffffffffffffffffffffffffff1681565b828054600181600116156101000203166002900490600052602060002090601f016020900481019282601f10610e6857805160ff1916838001178555610e96565b82800160010185558215610e96579182015b82811115610e95578251825591602001919060010190610e7a565b5b509050610ea39190610ea7565b5090565b610ec991905b80821115610ec5576000816000905550600101610ead565b5090565b9056fea265627a7a7231582033d6384949e439a6a6410028289431c85aca3a5e569f41fab3ead9324cc107d964736f6c634300050d0032",
  "source": "pragma solidity ^0.5.11;\n\ncontract contractCreator {\n\n    address public token; // token address\n\n    address public owner; // owner of contract i.e. admin\n    uint public quorum; // number of approvals needed\n    string public question; // open question seeking approval\n    string public responseInfo; // information that the source uploads\n\n    bool public live = false; // contract is active, no more changing parameters\n    bool public completed = false; // contract is completed\n    bool public withdraw = false; // can withdraw from the contract\n\n    address[] public voters;\n    uint public votersLength = 0;\n    mapping(address => bool) allowedToVote;\n    mapping(address => bool) voted;\n\n    uint public approvals = 0;\n\n    // TODO: add check for token balance\n    constructor(uint quorum_, string memory question_) public {\n    // constructor(uint quorum_, string memory question_, address token_) public {\n        owner = msg.sender;\n        quorum = quorum_;\n        question = question_;\n        // token = token_;\n    }\n\n    modifier onlyOwner() {\n        require(msg.sender == owner, 'only owner!'); // only owner actions\n        _;\n    }\n\n    modifier isLive(){\n        require(live == true, 'contract is not live!'); // contract is not yet live\n         _;\n    }\n\n    modifier notLive(){\n        require(live == false, 'contract is live!'); // contract is not yet live\n         _;\n    }\n\n    function addVoter(address address_) public notLive onlyOwner  returns (bool) {\n        require(!allowedToVote[address_], 'address already able to vote!');\n\n        voters.push(address_);\n        allowedToVote[address_] = true;\n        votersLength++;\n\n        return true;\n    }\n\n    function goLive() public onlyOwner returns (bool){\n        live = true;\n        return true;\n    }\n\n    function vote() public isLive returns (bool){\n        require(allowedToVote[msg.sender] == true, 'voter not authorized!');\n        require(!voted[msg.sender], 'voter already voted!');\n        approvals++; // use safe math later\n\n        if(approvals >= quorum) { // if quorum reached,\n            withdraw = true;\n            completed = true;\n        }\n\n        return true;\n    }\n\n    function submitInfo(string memory info) public isLive returns (bool){\n        responseInfo = info;\n        return true;\n    }\n\n    // function withdraw(){\n    //     // withdraw erc20 via approve/transferFrom\n    //      // only source can withdraw so we need source\n    // };\n}\n\n// library SafeMath {\n//     function sub(uint256 a, uint256 b) internal pure returns (uint256) {\n//       assert(b <= a);\n//       return a - b;\n//     }\n\n//     function add(uint256 a, uint256 b) internal pure returns (uint256) {\n//       uint256 c = a + b;\n//       assert(c >= a);\n//       return c;\n//     }\n// }\n",
  "sourcePath": "/home/user00/Documents/leakspeak/contracts/contractCreator.sol",
  "compiler": {
    "name": "solc",
    "version": "0.5.13+commit.5b0b510c.Emscripten.clang"
  },
  "schemaVersion": "3.0.19",
  "updatedAt": "2019-12-08T02:30:50.458Z",
  "devdoc": {
    "methods": {}
  },
  "userdoc": {
    "methods": {}
  }
}