{
  "contractName": "tokenMinter",
  "abi": [
    {
      "inputs": [
        {
          "internalType": "uint256",
          "name": "total",
          "type": "uint256"
        },
        {
          "internalType": "string",
          "name": "name_",
          "type": "string"
        },
        {
          "internalType": "string",
          "name": "symbol_",
          "type": "string"
        }
      ],
      "payable": false,
      "stateMutability": "nonpayable",
      "type": "constructor"
    },
    {
      "anonymous": false,
      "inputs": [
        {
          "indexed": true,
          "internalType": "address",
          "name": "tokenOwner",
          "type": "address"
        },
        {
          "indexed": true,
          "internalType": "address",
          "name": "spender",
          "type": "address"
        },
        {
          "indexed": false,
          "internalType": "uint256",
          "name": "tokens",
          "type": "uint256"
        }
      ],
      "name": "Approval",
      "type": "event"
    },
    {
      "anonymous": false,
      "inputs": [
        {
          "indexed": true,
          "internalType": "address",
          "name": "from",
          "type": "address"
        },
        {
          "indexed": true,
          "internalType": "address",
          "name": "to",
          "type": "address"
        },
        {
          "indexed": false,
          "internalType": "uint256",
          "name": "tokens",
          "type": "uint256"
        }
      ],
      "name": "Transfer",
      "type": "event"
    },
    {
      "constant": true,
      "inputs": [],
      "name": "name",
      "outputs": [
        {
          "internalType": "string",
          "name": "",
          "type": "string"
        }
      ],
      "payable": false,
      "stateMutability": "view",
      "type": "function"
    },
    {
      "constant": true,
      "inputs": [],
      "name": "symbol",
      "outputs": [
        {
          "internalType": "string",
          "name": "",
          "type": "string"
        }
      ],
      "payable": false,
      "stateMutability": "view",
      "type": "function"
    },
    {
      "constant": true,
      "inputs": [],
      "name": "totalSupply",
      "outputs": [
        {
          "internalType": "uint256",
          "name": "",
          "type": "uint256"
        }
      ],
      "payable": false,
      "stateMutability": "view",
      "type": "function"
    },
    {
      "constant": true,
      "inputs": [
        {
          "internalType": "address",
          "name": "tokenOwner",
          "type": "address"
        }
      ],
      "name": "balanceOf",
      "outputs": [
        {
          "internalType": "uint256",
          "name": "",
          "type": "uint256"
        }
      ],
      "payable": false,
      "stateMutability": "view",
      "type": "function"
    },
    {
      "constant": false,
      "inputs": [
        {
          "internalType": "address",
          "name": "receiver",
          "type": "address"
        },
        {
          "internalType": "uint256",
          "name": "numTokens",
          "type": "uint256"
        }
      ],
      "name": "transfer",
      "outputs": [
        {
          "internalType": "bool",
          "name": "",
          "type": "bool"
        }
      ],
      "payable": false,
      "stateMutability": "nonpayable",
      "type": "function"
    },
    {
      "constant": false,
      "inputs": [
        {
          "internalType": "address",
          "name": "delegate",
          "type": "address"
        },
        {
          "internalType": "uint256",
          "name": "numTokens",
          "type": "uint256"
        }
      ],
      "name": "approve",
      "outputs": [
        {
          "internalType": "bool",
          "name": "",
          "type": "bool"
        }
      ],
      "payable": false,
      "stateMutability": "nonpayable",
      "type": "function"
    },
    {
      "constant": true,
      "inputs": [
        {
          "internalType": "address",
          "name": "owner",
          "type": "address"
        },
        {
          "internalType": "address",
          "name": "delegate",
          "type": "address"
        }
      ],
      "name": "allowance",
      "outputs": [
        {
          "internalType": "uint256",
          "name": "",
          "type": "uint256"
        }
      ],
      "payable": false,
      "stateMutability": "view",
      "type": "function"
    },
    {
      "constant": false,
      "inputs": [
        {
          "internalType": "address",
          "name": "owner",
          "type": "address"
        },
        {
          "internalType": "address",
          "name": "buyer",
          "type": "address"
        },
        {
          "internalType": "uint256",
          "name": "numTokens",
          "type": "uint256"
        }
      ],
      "name": "transferFrom",
      "outputs": [
        {
          "internalType": "bool",
          "name": "",
          "type": "bool"
        }
      ],
      "payable": false,
      "stateMutability": "nonpayable",
      "type": "function"
    }
  ],
  "bytecode": "0x608060405260405180602001604052806000815250600090805190602001906200002b92919062000297565b5060405180602001604052806000815250600190805190602001906200005392919062000297565b503480156200006157600080fd5b506040516200100038038062001000833981810160405260608110156200008757600080fd5b810190808051906020019092919080516040519392919084640100000000821115620000b257600080fd5b83820191506020820185811115620000c957600080fd5b8251866001820283011164010000000082111715620000e757600080fd5b8083526020830192505050908051906020019080838360005b838110156200011d57808201518184015260208101905062000100565b50505050905090810190601f1680156200014b5780820380516001836020036101000a031916815260200191505b50604052602001805160405193929190846401000000008211156200016f57600080fd5b838201915060208201858111156200018657600080fd5b8251866001820283011164010000000082111715620001a457600080fd5b8083526020830192505050908051906020019080838360005b83811015620001da578082015181840152602081019050620001bd565b50505050905090810190601f168015620002085780820380516001836020036101000a031916815260200191505b5060405250505082600381905550600354600260003373ffffffffffffffffffffffffffffffffffffffff1673ffffffffffffffffffffffffffffffffffffffff1681526020019081526020016000208190555081600090805190602001906200027492919062000297565b5080600190805190602001906200028d92919062000297565b5050505062000346565b828054600181600116156101000203166002900490600052602060002090601f016020900481019282601f10620002da57805160ff19168380011785556200030b565b828001600101855582156200030b579182015b828111156200030a578251825591602001919060010190620002ed565b5b5090506200031a91906200031e565b5090565b6200034391905b808211156200033f57600081600090555060010162000325565b5090565b90565b610caa80620003566000396000f3fe608060405234801561001057600080fd5b50600436106100885760003560e01c806370a082311161005b57806370a082311461021a57806395d89b4114610272578063a9059cbb146102f5578063dd62ed3e1461035b57610088565b806306fdde031461008d578063095ea7b31461011057806318160ddd1461017657806323b872dd14610194575b600080fd5b6100956103d3565b6040518080602001828103825283818151815260200191508051906020019080838360005b838110156100d55780820151818401526020810190506100ba565b50505050905090810190601f1680156101025780820380516001836020036101000a031916815260200191505b509250505060405180910390f35b61015c6004803603604081101561012657600080fd5b81019080803573ffffffffffffffffffffffffffffffffffffffff16906020019092919080359060200190929190505050610471565b604051808215151515815260200191505060405180910390f35b61017e610563565b6040518082815260200191505060405180910390f35b610200600480360360608110156101aa57600080fd5b81019080803573ffffffffffffffffffffffffffffffffffffffff169060200190929190803573ffffffffffffffffffffffffffffffffffffffff1690602001909291908035906020019092919050505061056d565b604051808215151515815260200191505060405180910390f35b61025c6004803603602081101561023057600080fd5b81019080803573ffffffffffffffffffffffffffffffffffffffff1690602001909291905050506108ed565b6040518082815260200191505060405180910390f35b61027a610936565b6040518080602001828103825283818151815260200191508051906020019080838360005b838110156102ba57808201518184015260208101905061029f565b50505050905090810190601f1680156102e75780820380516001836020036101000a031916815260200191505b509250505060405180910390f35b6103416004803603604081101561030b57600080fd5b81019080803573ffffffffffffffffffffffffffffffffffffffff169060200190929190803590602001909291905050506109d4565b604051808215151515815260200191505060405180910390f35b6103bd6004803603604081101561037157600080fd5b81019080803573ffffffffffffffffffffffffffffffffffffffff169060200190929190803573ffffffffffffffffffffffffffffffffffffffff169060200190929190505050610bbb565b6040518082815260200191505060405180910390f35b60008054600181600116156101000203166002900480601f0160208091040260200160405190810160405280929190818152602001828054600181600116156101000203166002900480156104695780601f1061043e57610100808354040283529160200191610469565b820191906000526020600020905b81548152906001019060200180831161044c57829003601f168201915b505050505081565b600081600460003373ffffffffffffffffffffffffffffffffffffffff1673ffffffffffffffffffffffffffffffffffffffff16815260200190815260200160002060008573ffffffffffffffffffffffffffffffffffffffff1673ffffffffffffffffffffffffffffffffffffffff168152602001908152602001600020819055508273ffffffffffffffffffffffffffffffffffffffff163373ffffffffffffffffffffffffffffffffffffffff167f8c5be1e5ebec7d5bd14f71427d1e84f3dd0314c0f7b2291e5b200ac8c7c3b925846040518082815260200191505060405180910390a36001905092915050565b6000600354905090565b6000600260008573ffffffffffffffffffffffffffffffffffffffff1673ffffffffffffffffffffffffffffffffffffffff168152602001908152602001600020548211156105bb57600080fd5b600460008573ffffffffffffffffffffffffffffffffffffffff1673ffffffffffffffffffffffffffffffffffffffff16815260200190815260200160002060003373ffffffffffffffffffffffffffffffffffffffff1673ffffffffffffffffffffffffffffffffffffffff1681526020019081526020016000205482111561064457600080fd5b61069682600260008773ffffffffffffffffffffffffffffffffffffffff1673ffffffffffffffffffffffffffffffffffffffff16815260200190815260200160002054610c4290919063ffffffff16565b600260008673ffffffffffffffffffffffffffffffffffffffff1673ffffffffffffffffffffffffffffffffffffffff1681526020019081526020016000208190555061076882600460008773ffffffffffffffffffffffffffffffffffffffff1673ffffffffffffffffffffffffffffffffffffffff16815260200190815260200160002060003373ffffffffffffffffffffffffffffffffffffffff1673ffffffffffffffffffffffffffffffffffffffff16815260200190815260200160002054610c4290919063ffffffff16565b600460008673ffffffffffffffffffffffffffffffffffffffff1673ffffffffffffffffffffffffffffffffffffffff16815260200190815260200160002060003373ffffffffffffffffffffffffffffffffffffffff1673ffffffffffffffffffffffffffffffffffffffff1681526020019081526020016000208190555061083a82600260008673ffffffffffffffffffffffffffffffffffffffff1673ffffffffffffffffffffffffffffffffffffffff16815260200190815260200160002054610c5990919063ffffffff16565b600260008573ffffffffffffffffffffffffffffffffffffffff1673ffffffffffffffffffffffffffffffffffffffff168152602001908152602001600020819055508273ffffffffffffffffffffffffffffffffffffffff168473ffffffffffffffffffffffffffffffffffffffff167fddf252ad1be2c89b69c2b068fc378daa952ba7f163c4a11628f55a4df523b3ef846040518082815260200191505060405180910390a3600190509392505050565b6000600260008373ffffffffffffffffffffffffffffffffffffffff1673ffffffffffffffffffffffffffffffffffffffff168152602001908152602001600020549050919050565b60018054600181600116156101000203166002900480601f0160208091040260200160405190810160405280929190818152602001828054600181600116156101000203166002900480156109cc5780601f106109a1576101008083540402835291602001916109cc565b820191906000526020600020905b8154815290600101906020018083116109af57829003601f168201915b505050505081565b6000600260003373ffffffffffffffffffffffffffffffffffffffff1673ffffffffffffffffffffffffffffffffffffffff16815260200190815260200160002054821115610a2257600080fd5b610a7482600260003373ffffffffffffffffffffffffffffffffffffffff1673ffffffffffffffffffffffffffffffffffffffff16815260200190815260200160002054610c4290919063ffffffff16565b600260003373ffffffffffffffffffffffffffffffffffffffff1673ffffffffffffffffffffffffffffffffffffffff16815260200190815260200160002081905550610b0982600260008673ffffffffffffffffffffffffffffffffffffffff1673ffffffffffffffffffffffffffffffffffffffff16815260200190815260200160002054610c5990919063ffffffff16565b600260008573ffffffffffffffffffffffffffffffffffffffff1673ffffffffffffffffffffffffffffffffffffffff168152602001908152602001600020819055508273ffffffffffffffffffffffffffffffffffffffff163373ffffffffffffffffffffffffffffffffffffffff167fddf252ad1be2c89b69c2b068fc378daa952ba7f163c4a11628f55a4df523b3ef846040518082815260200191505060405180910390a36001905092915050565b6000600460008473ffffffffffffffffffffffffffffffffffffffff1673ffffffffffffffffffffffffffffffffffffffff16815260200190815260200160002060008373ffffffffffffffffffffffffffffffffffffffff1673ffffffffffffffffffffffffffffffffffffffff16815260200190815260200160002054905092915050565b600082821115610c4e57fe5b818303905092915050565b600080828401905083811015610c6b57fe5b809150509291505056fea265627a7a72315820f1ac43d3476a3e891ccd9c751399554ee516b441031e1c451de0295c45676a8964736f6c634300050d0032",
  "source": "pragma solidity ^0.5.12;\n\ncontract tokenMinter {\n    string public name = \"\";\n    string public symbol = \"\";\n    event Approval(address indexed tokenOwner, address indexed spender, uint tokens);\n    event Transfer(address indexed from, address indexed to, uint tokens);\n    mapping(address => uint256) balances;\n    uint256 totalSupply_;\n    using SafeMath for uint256;\n    mapping(address => mapping (address => uint256)) allowed;\n\n   constructor(uint256 total, string memory name_, string memory symbol_) public {\n    totalSupply_ = total;\n    balances[msg.sender] = totalSupply_;\n    name = name_;\n    symbol = symbol_;\n    }\n    function totalSupply() public view returns (uint256) {\n    return totalSupply_;\n    }\n\n    function balanceOf(address tokenOwner) public view returns (uint) {\n        return balances[tokenOwner];\n    }\n    function transfer(address receiver, uint numTokens) public returns (bool) {\n        require(numTokens <= balances[msg.sender]);\n        balances[msg.sender] = balances[msg.sender].sub(numTokens);\n        balances[receiver] = balances[receiver].add(numTokens);\n        emit Transfer(msg.sender, receiver, numTokens);\n        return true;\n    }\n    function approve(address delegate, uint numTokens) public returns (bool) {\n        allowed[msg.sender][delegate] = numTokens;\n        emit Approval(msg.sender, delegate, numTokens);\n        return true;\n    }\n\n    function allowance(address owner, address delegate) public view returns (uint) {\n        return allowed[owner][delegate];\n    }\n    function transferFrom(address owner, address buyer, uint numTokens) public returns (bool) {\n        require(numTokens <= balances[owner]);\n        require(numTokens <= allowed[owner][msg.sender]);\n\n        balances[owner] = balances[owner].sub(numTokens);\n        allowed[owner][msg.sender] = allowed[owner][msg.sender].sub(numTokens);\n        balances[buyer] = balances[buyer].add(numTokens);\n        emit Transfer(owner, buyer, numTokens);\n        return true;\n    }\n}\n\nlibrary SafeMath {\n    function sub(uint256 a, uint256 b) internal pure returns (uint256) {\n      assert(b <= a);\n      return a - b;\n    }\n\n    function add(uint256 a, uint256 b) internal pure returns (uint256) {\n      uint256 c = a + b;\n      assert(c >= a);\n      return c;\n    }\n}",
  "sourcePath": "/home/user00/Documents/leakspeak/contracts/tokenMinter.sol",
  "compiler": {
    "name": "solc",
    "version": "0.5.13+commit.5b0b510c.Emscripten.clang"
  },
  "schemaVersion": "3.0.19",
  "updatedAt": "2019-12-08T02:53:25.434Z",
  "networkType": "ethereum",
  "devdoc": {
    "methods": {}
  },
  "userdoc": {
    "methods": {}
  }
}